{
  "contractName": "DMessage",
  "abi": [
    {
      "anonymous": false,
      "inputs": [
        {
          "indexed": false,
          "internalType": "uint256",
          "name": "id",
          "type": "uint256"
        },
        {
          "indexed": true,
          "internalType": "address",
          "name": "sender",
          "type": "address"
        },
        {
          "indexed": false,
          "internalType": "string",
          "name": "message",
          "type": "string"
        },
        {
          "indexed": false,
          "internalType": "uint256",
          "name": "time",
          "type": "uint256"
        }
      ],
      "name": "MessageSent",
      "type": "event"
    },
    {
      "inputs": [],
      "name": "messageCount",
      "outputs": [
        {
          "internalType": "uint256",
          "name": "",
          "type": "uint256"
        }
      ],
      "stateMutability": "view",
      "type": "function",
      "constant": true
    },
    {
      "inputs": [],
      "name": "name",
      "outputs": [
        {
          "internalType": "string",
          "name": "",
          "type": "string"
        }
      ],
      "stateMutability": "view",
      "type": "function",
      "constant": true
    },
    {
      "inputs": [],
      "name": "nameInShort",
      "outputs": [
        {
          "internalType": "string",
          "name": "",
          "type": "string"
        }
      ],
      "stateMutability": "view",
      "type": "function",
      "constant": true
    },
    {
      "inputs": [
        {
          "internalType": "string",
          "name": "_message",
          "type": "string"
        }
      ],
      "name": "sendMessage",
      "outputs": [],
      "stateMutability": "nonpayable",
      "type": "function"
    },
    {
      "inputs": [
        {
          "internalType": "uint256",
          "name": "_id",
          "type": "uint256"
        }
      ],
      "name": "getMessage",
      "outputs": [
        {
          "components": [
            {
              "internalType": "uint256",
              "name": "id",
              "type": "uint256"
            },
            {
              "internalType": "address",
              "name": "sender",
              "type": "address"
            },
            {
              "internalType": "string",
              "name": "message",
              "type": "string"
            },
            {
              "internalType": "uint256",
              "name": "time",
              "type": "uint256"
            }
          ],
          "internalType": "struct DMessage.Message",
          "name": "",
          "type": "tuple"
        }
      ],
      "stateMutability": "view",
      "type": "function",
      "constant": true
    }
  ],
  "bytecode": "0x60806040526040518060400160405280601581526020017f446563656e7472616c697a6564204d65737361676500000000000000000000008152506000908051906020019062000051929190620000b4565b506040518060400160405280600881526020017f444d657373616765000000000000000000000000000000000000000000000000815250600190805190602001906200009f929190620000b4565b50348015620000ad57600080fd5b50620001c9565b828054620000c29062000193565b90600052602060002090601f016020900481019282620000e6576000855562000132565b82601f106200010157805160ff191683800117855562000132565b8280016001018555821562000132579182015b828111156200013157825182559160200191906001019062000114565b5b50905062000141919062000145565b5090565b5b808211156200016057600081600090555060010162000146565b5090565b7f4e487b7100000000000000000000000000000000000000000000000000000000600052602260045260246000fd5b60006002820490506001821680620001ac57607f821691505b60208210811415620001c357620001c262000164565b5b50919050565b610c0c80620001d96000396000f3fe608060405234801561001057600080fd5b50600436106100575760003560e01c806306fdde031461005c5780633dbcc8d11461007a578063469c811014610098578063645af71d146100b457806386f79edb146100d2575b600080fd5b610064610102565b6040516100719190610687565b60405180910390f35b610082610190565b60405161008f91906106c2565b60405180910390f35b6100b260048036038101906100ad9190610826565b610196565b005b6100bc610312565b6040516100c99190610687565b60405180910390f35b6100ec60048036038101906100e7919061089b565b6103a0565b6040516100f991906109c5565b60405180910390f35b6000805461010f90610a16565b80601f016020809104026020016040519081016040528092919081815260200182805461013b90610a16565b80156101885780601f1061015d57610100808354040283529160200191610188565b820191906000526020600020905b81548152906001019060200180831161016b57829003601f168201915b505050505081565b60025481565b60008151116101da576040517f08c379a00000000000000000000000000000000000000000000000000000000081526004016101d190610a94565b60405180910390fd5b604051806080016040528060025481526020013373ffffffffffffffffffffffffffffffffffffffff168152602001828152602001428152506003600060025481526020019081526020016000206000820151816000015560208201518160010160006101000a81548173ffffffffffffffffffffffffffffffffffffffff021916908373ffffffffffffffffffffffffffffffffffffffff160217905550604082015181600201908051906020019061029592919061050d565b50606082015181600301559050503373ffffffffffffffffffffffffffffffffffffffff167f1f8960ec3ee7087d0552bc042c456f22e713898e21204c04f5885b3942bb079060025483426040516102ef93929190610ab4565b60405180910390a26002600081548092919061030a90610b21565b919050555050565b6001805461031f90610a16565b80601f016020809104026020016040519081016040528092919081815260200182805461034b90610a16565b80156103985780601f1061036d57610100808354040283529160200191610398565b820191906000526020600020905b81548152906001019060200180831161037b57829003601f168201915b505050505081565b6103a8610593565b60025482106103ec576040517f08c379a00000000000000000000000000000000000000000000000000000000081526004016103e390610bb6565b60405180910390fd5b60036000838152602001908152602001600020604051806080016040529081600082015481526020016001820160009054906101000a900473ffffffffffffffffffffffffffffffffffffffff1673ffffffffffffffffffffffffffffffffffffffff1673ffffffffffffffffffffffffffffffffffffffff16815260200160028201805461047a90610a16565b80601f01602080910402602001604051908101604052809291908181526020018280546104a690610a16565b80156104f35780601f106104c8576101008083540402835291602001916104f3565b820191906000526020600020905b8154815290600101906020018083116104d657829003601f168201915b505050505081526020016003820154815250509050919050565b82805461051990610a16565b90600052602060002090601f01602090048101928261053b5760008555610582565b82601f1061055457805160ff1916838001178555610582565b82800160010185558215610582579182015b82811115610581578251825591602001919060010190610566565b5b50905061058f91906105d1565b5090565b604051806080016040528060008152602001600073ffffffffffffffffffffffffffffffffffffffff16815260200160608152602001600081525090565b5b808211156105ea5760008160009055506001016105d2565b5090565b600081519050919050565b600082825260208201905092915050565b60005b8381101561062857808201518184015260208101905061060d565b83811115610637576000848401525b50505050565b6000601f19601f8301169050919050565b6000610659826105ee565b61066381856105f9565b935061067381856020860161060a565b61067c8161063d565b840191505092915050565b600060208201905081810360008301526106a1818461064e565b905092915050565b6000819050919050565b6106bc816106a9565b82525050565b60006020820190506106d760008301846106b3565b92915050565b6000604051905090565b600080fd5b600080fd5b600080fd5b600080fd5b7f4e487b7100000000000000000000000000000000000000000000000000000000600052604160045260246000fd5b6107338261063d565b810181811067ffffffffffffffff82111715610752576107516106fb565b5b80604052505050565b60006107656106dd565b9050610771828261072a565b919050565b600067ffffffffffffffff821115610791576107906106fb565b5b61079a8261063d565b9050602081019050919050565b82818337600083830152505050565b60006107c96107c484610776565b61075b565b9050828152602081018484840111156107e5576107e46106f6565b5b6107f08482856107a7565b509392505050565b600082601f83011261080d5761080c6106f1565b5b813561081d8482602086016107b6565b91505092915050565b60006020828403121561083c5761083b6106e7565b5b600082013567ffffffffffffffff81111561085a576108596106ec565b5b610866848285016107f8565b91505092915050565b610878816106a9565b811461088357600080fd5b50565b6000813590506108958161086f565b92915050565b6000602082840312156108b1576108b06106e7565b5b60006108bf84828501610886565b91505092915050565b6108d1816106a9565b82525050565b600073ffffffffffffffffffffffffffffffffffffffff82169050919050565b6000610902826108d7565b9050919050565b610912816108f7565b82525050565b600082825260208201905092915050565b6000610934826105ee565b61093e8185610918565b935061094e81856020860161060a565b6109578161063d565b840191505092915050565b600060808301600083015161097a60008601826108c8565b50602083015161098d6020860182610909565b50604083015184820360408601526109a58282610929565b91505060608301516109ba60608601826108c8565b508091505092915050565b600060208201905081810360008301526109df8184610962565b905092915050565b7f4e487b7100000000000000000000000000000000000000000000000000000000600052602260045260246000fd5b60006002820490506001821680610a2e57607f821691505b60208210811415610a4257610a416109e7565b5b50919050565b7f5f6d6573736167652063616e277420626520656d707479000000000000000000600082015250565b6000610a7e6017836105f9565b9150610a8982610a48565b602082019050919050565b60006020820190508181036000830152610aad81610a71565b9050919050565b6000606082019050610ac960008301866106b3565b8181036020830152610adb818561064e565b9050610aea60408301846106b3565b949350505050565b7f4e487b7100000000000000000000000000000000000000000000000000000000600052601160045260246000fd5b6000610b2c826106a9565b91507fffffffffffffffffffffffffffffffffffffffffffffffffffffffffffffffff821415610b5f57610b5e610af2565b5b600182019050919050565b7f4d65737361676520646f65736e27742065786973740000000000000000000000600082015250565b6000610ba06015836105f9565b9150610bab82610b6a565b602082019050919050565b60006020820190508181036000830152610bcf81610b93565b905091905056fea264697066735822122069f9bab0c139485e5b5348fe7e6ec0e0e053b5db7f722ff6bb8f8e96b97eac4c64736f6c634300080c0033",
  "immutableReferences": {},
  "source": "// SPDX-License-Identifier: MIT\npragma solidity 0.8.12;\n\ncontract DMessage {\n\n    string public name = \"Decentralized Message\";\n    string public nameInShort = \"DMessage\";\n\n    //Message Count\n    uint public messageCount;\n\n    //Message\n    struct Message{\n        uint id;\n        address sender;\n        string message;\n        uint time;\n    }\n\n    //All Messages\n    mapping(uint => Message) private _messages;\n\n    //Events\n    event MessageSent(\n        uint id,\n        address indexed sender,\n        string message,\n        uint time);\n\n    //Send Message\n    function sendMessage(string memory _message) external {\n        require(bytes(_message).length > 0, \"_message can't be empty\");\n        _messages[messageCount] = Message(messageCount,msg.sender,_message,block.timestamp);\n\n        emit MessageSent(messageCount,msg.sender,_message,block.timestamp);\n        messageCount++;\n        \n    }\n\n    //Get Message\n    function getMessage(uint _id) external view returns (Message memory) {\n        require(_id < messageCount, \"Message doesn't exist\");\n        return _messages[_id];\n    }\n    \n}",
  "sourcePath": "/media/kaamil/New Volume1/dapps-full/web3-message-app/smart-contracts/contracts/DMessage.sol",
  "compiler": {
    "name": "solc",
    "version": "0.8.12+commit.f00d7308.Emscripten.clang"
  },
  "schemaVersion": "3.4.7",
  "updatedAt": "2022-05-29T02:06:18.607Z",
  "networkType": "ethereum",
  "devdoc": {
    "kind": "dev",
    "methods": {},
    "version": 1
  },
  "userdoc": {
    "kind": "user",
    "methods": {},
    "version": 1
  }
}